:020000040800F2
:1000000000500020C93300081133000817330008DE
:100010001D330008233300082933000800000000C6
:100020000000000000000000000000002137000870
:100030002F3300080000000001390008493900088A
:10004000113400081134000811340008113400087C
:10005000113400081134000811340008113400086C
:10006000113400083B330008113400081134000833
:10007000113400081134000811340008113400084C
:100080001134000811340008113400084933000805
:100090005D3300087133000811340008853300080F
:1000A000113400081134000811340008113400081C
:1000B0001134000895330008A933000811340008F2
:1000C00011340008113400081134000811340008FC
:1000D00011340008113400081134000811340008EC
:1000E0001134000811340008113400080000000029
:1000F0000000000000000000000000000000000000
:0C01000000000000000000005FF808F1A3
:1001100010B5054C237833B9044B13B10448AFF341
:1001200000800123237010BD10000020000000009B
:100130009882000808B5034B1BB103490348AFF38D
:10014000008008BD00000000140000209882000814
:1001500070B54FF0FF0C4CF4E06C1CEA11541DBF5D
:100160001CEA135594EA0C0F95EA0C0F00F0DEF828
:100170002C4481EA030621EA4C5123EA4C5350EA0D
:10018000013518BF52EA033541F4801143F480135E
:1001900038D0A0FB02CE4FF00005E1FB02E506F0EF
:1001A0000042E0FB03E54FF00006E1FB03569CF044
:1001B000000F18BF4EF0010EA4F1FF04B6F5007F4A
:1001C00064F5407404D25FEA4E0E6D4146EB0606BC
:1001D00042EAC62141EA55514FEAC52040EA5E5045
:1001E0004FEACE2EB4F1FD0C88BFBCF5E06F1ED8EF
:1001F000BEF1004F08BF5FEA500E50F1000041EB26
:10020000045170BD06F0004646EA010140EA0200D2
:1002100081EA0301B4EB5C04C2BFD4EB0C0541EAF4
:10022000045170BD41F480114FF0000E013C00F309
:10023000AB8014F1360FDEBF002001F0004170BD2D
:10024000C4F10004203C35DA0C341BDC04F1140446
:10025000C4F1200500FA05F320FA04F001FA05F2D2
:1002600040EA020001F0004221F0004110EBD3709F
:1002700021FA04F642EB06015EEA430E08BF20EACB
:10028000D37070BDC4F10C04C4F1200500FA04F36E
:1002900020FA05F001FA04F240EA020001F0004100
:1002A00010EBD37041F100015EEA430E08BF20EA73
:1002B000D37070BDC4F1200500FA05F24EEA020EBB
:1002C00020FA04F301FA05F243EA020321FA04F0EA
:1002D00001F0004121FA04F220EA020000EBD370A1
:1002E0005EEA430E08BF20EAD37070BD94F0000FA1
:1002F0000FD101F00046400041EB010111F4801FD5
:1003000008BF013CF7D041EA060195F0000F18BF85
:10031000704703F00046520043EB030313F4801FC1
:1003200008BF013DF7D043EA0603704794EA0C0F7B
:100330000CEA135518BF95EA0C0F0CD050EA410691
:1003400018BF52EA4306D1D181EA030101F000410E
:100350004FF0000070BD50EA410606BF1046194636
:1003600052EA430619D094EA0C0F02D150EA013642
:1003700013D195EA0C0F05D152EA03361CBF104683
:1003800019460AD181EA030101F0004141F0FE4122
:1003900041F470014FF0000070BD41F0FE4141F4A6
:1003A000780170BD81F0004102E000BF83F000439E
:1003B00030B54FEA41044FEA430594EA050F08BF00
:1003C00090EA020F1FBF54EA000C55EA020C7FEAC4
:1003D000645C7FEA655C00F0E2804FEA5454D4EB41
:1003E0005555B8BF6D420CDD2C4480EA020281EA0B
:1003F000030382EA000083EA010180EA020281EA43
:100400000303362D88BF30BD11F0004F4FEA013194
:100410004FF4801C4CEA113102D0404261EB4101A3
:1004200013F0004F4FEA03334CEA133302D0524229
:1004300063EB430394EA050F00F0A780A4F10104E5
:10044000D5F1200E0DDB02FA0EFC22FA05F280181F
:1004500041F1000103FA0EF2801843FA05F3594105
:100460000EE0A5F120050EF1200E012A03FA0EFC84
:1004700028BF4CF0020C43FA05F3C01851EBE371AE
:1004800001F0004507D54FF0000EDCF1000C7EEBCB
:1004900000006EEB0101B1F5801F1BD3B1F5001F09
:1004A0000CD349085FEA30004FEA3C0C04F1010428
:1004B0004FEA445212F5800F80F09A80BCF1004F51
:1004C00008BF5FEA500C50F1000041EB045141EAD3
:1004D000050130BD5FEA4C0C404141EB0101013C9C
:1004E00028BFB1F5801FE9D291F0000F04BF01468B
:1004F0000020B1FA81F308BF2033A3F10B03B3F15D
:1005000020020CDA0C3208DD02F1140CC2F10C02EC
:1005100001FA0CF021FA02F10CE002F11402D8BF4A
:10052000C2F1200C01FA02F120FA0CFCDCBF41EA16
:100530000C019040E41AA2BF01EB0451294330BDE5
:100540006FEA04041F3C1CDA0C340EDC04F11404C2
:10055000C4F1200220FA04F001FA02F340EA030099
:1005600021FA04F345EA030130BDC4F10C04C4F1DF
:10057000200220FA02F001FA04F340EA03002946BF
:1005800030BD21FA04F0294630BD94F0000F83F409
:10059000801306BF81F480110134013D4EE77FEAEC
:1005A000645C18BF7FEA655C29D094EA050F08BF38
:1005B00090EA020F05D054EA000C04BF1946104619
:1005C00030BD91EA030F1EBF0021002030BD5FEA5D
:1005D000545C05D14000494128BF41F0004130BD85
:1005E00014F580043CBF01F5801130BD01F00045D9
:1005F00045F0FE4141F470014FF0000030BD7FEA4C
:10060000645C1ABF194610467FEA655C1CBF0B4646
:10061000024650EA013406BF52EA033591EA030F5D
:1006200041F4002130BD00BF90F0000F04BF002155
:10063000704730B54FF4806404F132044FF0000588
:100640004FF0000150E700BF90F0000F04BF002101
:10065000704730B54FF4806404F1320410F0004567
:1006600048BF40424FF000013EE700BF42004FEA62
:10067000E2014FEA31014FEA02701FBF12F07F43DF
:1006800093F07F4F81F06051704732F07F4208BF96
:10069000704793F07F4F04BF41F40021704730B59D
:1006A0004FF4607401F0004521F000411CE700BFE9
:1006B00050EA010208BF704730B54FF000050AE06C
:1006C00050EA010208BF704730B511F0004502D56D
:1006D000404261EB41014FF4806404F132045FEA6F
:1006E000915C3FF4D8AE4FF003025FEADC0C18BF18
:1006F00003325FEADC0C18BF033202EBDC02C2F10A
:10070000200300FA03FC20FA02F001FA03FE40EA9B
:100710000E0021FA02F11444BDE600BF4FEA410287
:10072000B2F1E04324BFB3F5001CDCF1FE5C0DD94F
:1007300001F0004C4FEAC0024CEA5070B2F1004F99
:1007400040EB830008BF20F00100704711F0804F9C
:1007500021D113F13872BCBF01F00040704741F461
:1007600080114FEA5252C2F11802C2F1200C10FA65
:100770000CF320FA02F018BF40F001004FEAC12349
:100780004FEAD32303FA0CFC40EA0C0023FA02F3ED
:100790004FEA4303CCE77FEA625307D150EA0133C3
:1007A0001EBF4FF0FE4040F44000704701F0004093
:1007B00040F0FE4040F40000704700BF80F0004071
:1007C00002E000BF81F0004142001FBF5FEA410329
:1007D00092EA030F7FEA226C7FEA236C6AD04FEA29
:1007E0001262D2EB1363C1BFD2184140484041406E
:1007F000B8BF5B42192B88BF704710F0004F40F420
:10080000000020F07F4018BF404211F0004F41F43B
:10081000000121F07F4118BF494292EA030F3FD007
:10082000A2F1010241FA03FC10EB0C00C3F120031A
:1008300001FA03F100F0004302D5494260EB4000A9
:10084000B0F5000F13D3B0F1807F06D340084FEA14
:10085000310102F10102FE2A51D2B1F1004F40EB09
:10086000C25008BF20F0010040EA03007047490071
:1008700040EB0000013A28BFB0F5000FEDD2B0FA0E
:1008800080FCACF1080CB2EB0C0200FA0CF0AABF31
:1008900000EBC25052421843BCBFD04018437047CF
:1008A00092F0000F81F4000106BF80F400000132D5
:1008B000013BB5E74FEA41037FEA226C18BF7FEAAC
:1008C000236C21D092EA030F04D092F0000F08BFEE
:1008D0000846704790EA010F1CBF0020704712F0D5
:1008E0007F4F04D1400028BF40F00040704712F114
:1008F00000723CBF00F50000704700F0004343F079
:10090000FE4040F4000070477FEA226216BF0846AE
:100910007FEA23630146420206BF5FEA412390EA71
:10092000010F40F4800070474FF0000304E000BF67
:1009300010F0004348BF40425FEA000C08BF704718
:1009400043F0964301464FF000001CE050EA0102DC
:1009500008BF70474FF000030AE000BF50EA0102F1
:1009600008BF704711F0004302D5404261EB4101DE
:100970005FEA010C02BF84460146002043F0B64303
:1009800008BFA3F18053A3F50003BCFA8CF2083A28
:10099000A3EBC25310DB01FA02FC634400FA02FC31
:1009A000C2F12002BCF1004F20FA02F243EB020038
:1009B00008BF20F00100704702F1200201FA02FC9A
:1009C000C2F1200250EA4C0021FA02F243EB02008D
:1009D00008BF20EADC7070474FF0FF0C1CEAD052D1
:1009E0001EBF1CEAD15392EA0C0F93EA0C0F6FD092
:1009F0001A4480EA010C400218BF5FEA41211ED070
:100A00004FF0006343EA501043EA5111A0FB01315B
:100A10000CF00040B1F5000F3EBF490041EAD37130
:100A20005B0040EA010062F17F02FD2A1DD8B3F1AC
:100A3000004F40EBC25008BF20F00100704790F01B
:100A4000000F0CF0004C08BF49024CEA502040EA6D
:100A500051207F3AC2BFD2F1FF0340EAC250704733
:100A600040F400004FF00003013A5DDC12F1190F71
:100A7000DCBF00F000407047C2F10002410021FAE3
:100A800002F1C2F1200200FA02FC5FEA310040F1FB
:100A9000000053EA4C0308BF20EADC70704792F074
:100AA000000F00F0004C02BF400010F4000F013AAC
:100AB000F9D040EA0C0093F0000F01F0004C02BFA7
:100AC000490011F4000F013BF9D041EA0C018FE716
:100AD0000CEAD15392EA0C0F18BF93EA0C0F0AD01C
:100AE00030F0004C18BF31F0004CD8D180EA010042
:100AF00000F00040704790F0000F17BF90F0004FDB
:100B0000084691F0000F91F0004F14D092EA0C0FBC
:100B100001D142020FD193EA0C0F03D14B0218BF4F
:100B2000084608D180EA010000F0004040F0FE4095
:100B300040F40000704740F0FE4040F44000704731
:100B40004FF0FF0C1CEAD0521EBF1CEAD15392EAB0
:100B50000C0F93EA0C0F69D0A2EB030280EA010CA0
:100B600049024FEA402037D04FF0805343EA111139
:100B700043EA10130CF000408B4238BF5B0042F197
:100B80007D024FF4000C8B4224BF5B1A40EA0C003C
:100B9000B3EB510F24BFA3EB510340EA5C00B3EB6E
:100BA000910F24BFA3EB910340EA9C00B3EBD10F5C
:100BB00024BFA3EBD10340EADC001B0118BF5FEAAE
:100BC0001C1CE0D1FD2A3FF650AF8B4240EBC250D7
:100BD00008BF20F0010070470CF0004C4CEA502098
:100BE0007F32C2BFD2F1FF0340EAC250704740F4E7
:100BF00000004FF00003013A37E792F0000F00F0D9
:100C0000004C02BF400010F4000F013AF9D040EA56
:100C10000C0093F0000F01F0004C02BF490011F4EA
:100C2000000F013BF9D041EA0C0195E70CEAD153E2
:100C300092EA0C0F08D142027FF47DAF93EA0C0FC9
:100C40007FF470AF084676E793EA0C0F04D14B02AD
:100C50003FF44CAF08466EE730F0004C18BF31F05F
:100C6000004CCAD130F000427FF45CAF31F0004359
:100C70007FF43CAF5FE700BF4FF0FF3C06E000BFF2
:100C80004FF0010C02E000BF4FF0010C4DF804CD15
:100C90004FEA40024FEA41037FEA226C18BF7FEA25
:100CA000236C11D001B052EA530C18BF90EA010F27
:100CB00058BFB2EB030088BFC81738BF6FEAE170B6
:100CC00018BF40F0010070477FEA226C02D15FEA52
:100CD000402C05D17FEA236CE4D15FEA412CE1D0BE
:100CE0005DF8040B704700BF844608466146FFE785
:100CF0000FB5FFF7C9FF002848BF10F1000F0FBD67
:100D00004DF808EDFFF7F4FF0CBF012000205DF85F
:100D100008FB00BF4DF808EDFFF7EAFF34BF0120E4
:100D200000205DF808FB00BF4DF808EDFFF7E0FF7D
:100D300094BF012000205DF808FB00BF4DF808EDCE
:100D4000FFF7D2FF94BF012000205DF808FB00BF31
:100D50004DF808EDFFF7C8FF34BF012000205DF813
:100D600008FB00BF4FEA4002B2F1FE4F0FD34FF035
:100D70009E03B3EB12620DD94FEA002343F0004308
:100D800010F0004F23FA02F018BF404270474FF0B6
:100D90000000704712F1610F01D1420205D110F03D
:100DA000004008BF6FF0004070474FF000007047F0
:100DB00080B400AF044B1B68DBB203F00F03DBB25F
:100DC0001846BD4680BC70475000002080B582B0F8
:100DD00000AF0346FB71FB791B02184600F026F8B2
:100DE00000BF0837BD4680BDB0B483B000AF7860A7
:100DF0007B68074A1C4615460FCD0FC495E80700CF
:100E000084E8070078680C37BD46B0BC704700BF67
:100E10005000002080B400AF034B0022DA6000BF16
:100E2000BD4680BC704700BF3800002080B483B04E
:100E300000AF78607B68B3F5006F01D3012306E053
:100E4000054B1A687B681343034A13600023184656
:100E50000C37BD4680BC70473800002080B582B09A
:100E600000AF7860396008220021094807F0DAF9FC
:100E70003B68082B02D8074A3B681361044B7A6829
:100E80001068516803C3002318460837BD4680BD6B
:100E90006C0000203800002080B582B000AF786080
:100EA0003960084B1B693A689A4201D0012305E07A
:100EB0003A680549786807F0E1F9002318460837D1
:100EC000BD4680BD500000207400002080B584B075
:100ED00000AFF8607A603B600B46FB72FB68002B4A
:100EE00005D07B68002B02D03B68002B01D1012389
:100EF0006EE0394B1B78002B01D0022368E0374BA2
:100F00001B88002B03D13B689AB2344B1A80334BB9
:100F10001B88072B1DD9314B1B881A463B6893420F
:100F200017D32F4B08221A612C4B1B881A463B689B
:100F30009B1A7A681A442B4B1068516803C3274BDD
:100F40001A88274B1B699BB2D31A9AB2234B1A807B
:100F50002AE0224B1B88072B26D8204B1B881A46D9
:100F60001F4B1A611D4B1B881A463B689B1A7A68F7
:100F700013441B4A126919461A4807F07FF9174BA8
:100F800000221A80FB7A1946F86800F0A3F803469D
:100F9000002B07D108220021124807F043F90E4B1D
:100FA00000221A70002313E00B4B01221A70FB7A07
:100FB0001946F86800F08EF80346002B07D1082286
:100FC0000021084807F02EF9034B00221A70022373
:100FD00018461037BD4680BD8000002082000020EA
:100FE000380000206C00002080B584B000AF78602D
:100FF0003960334B1B6803F00F03FB60314B1B68F8
:10100000FA689A421ED0304B1B88002B1AD12D4A09
:10101000FB6813602C4B1B881A467B681344284AD4
:1010200012692A49184607F029F9254B1B699AB21B
:10103000254B1B8813449AB2234B1A80244B002261
:101040001A6029E01F4B1B68FA689A4208D01E4BB1
:101050001B88002B04D01E4B00221A6001232AE0BB
:10106000184B1B68FA689A4216D1174B1B881A4610
:101070007B681344124A12691449184607F0FEF8B7
:101080000F4B1B699AB2104B1B8813449AB20E4B3C
:101090001A800F4B00221A600B4B1B881A463B68C4
:1010A000934207D1084B00221A80064B00221A6097
:1010B000002300E0022318461037BD4680BD00BF64
:1010C00050000020840000208800002074000020D0
:1010D0007C00002080B584B000AF78600B46FB70C8
:1010E000194B1B69002B04D17B68002B01D1012314
:1010F00026E0786804F0FDFC0346002B01D10223B2
:101100001EE00023FB73104B00229A60FFF782FE63
:10111000FB78002B03D0FB781846FFF757FE0B4BEC
:101120000B4A0949786804F015FC0346FB73064B2B
:1011300000221A6008220021054807F073F8FB7BA3
:1011400018461037BD4680BD380000202C00002016
:101150006C00002080B582B000AF78603960064B2B
:10116000064A3968786804F0F8FCFFF721FE034668
:1011700018460837BD4680BD74000020500000208E
:1011800080B58EB000AFF860084611461A46034697
:101190007B810B463B811346FB8001233B637B6CC9
:1011A0007B62BB6C3B62FB885B017B617B895B0183
:1011B0003B61B7F840305B01FB613B895B01BB6180
:1011C0000123BB620023FB620D237B6307F1100345
:1011D0001946F86804F0B1FA034618463837BD4698
:1011E00080BD80B58EB000AFF860084611461A4643
:1011F00003467B810B463B811346FB8001233B6307
:101200007B6C7B62BB6C3B623B897B617B893B6116
:10121000B7F84030FB61FB88BB610023BB62002351
:10122000FB620D237B6307F110031946F86804F095
:1012300084FA034618463837BD4680BD84B0F0B501
:1012400095B010AF786007F12C0080E80E00144BC9
:101250001B68FB8100BFFB89DEB297F870300F93EB
:101260006D4607F134040FCC0FC50FCC0FC50FCC62
:101270000FC594E8070085E8070007F12C030CCBA5
:101280003146786800F03DF80346002BE3D100BFFB
:1012900000BF1437BD46BDE8F04004B0704700BF42
:1012A0000000010880B582B000AFBB1D01211846C7
:1012B000FFF7F2FD0346002B00D0FEE7BB79013BB0
:1012C000002B14BF01230023FB71FB79184608375C
:1012D000BD4680BD80B584B000AF786007F10803DB
:1012E00008211846FFF7D8FD0346002B00D0FEE783
:1012F0007968D7E90223C1E9002378681037BD4631
:1013000080BD82B080B588B000AF786007F128005A
:1013100080E80C000B46FB7097F86C30072B0ED062
:10132000072B10DC052B02D0062B04D00BE0082085
:10133000FFF77CFD09E00720FFF778FD05E00620B8
:10134000FFF774FD01E0012311E07B6BFB60FB6B99
:101350003B61BB6C7B61BB6DBB613B6BFB6107F1B0
:101360000C02F97814237868FFF7B0FD034618469D
:101370002037BD46BDE8804002B0704784B090B4CD
:1013800000AF07F1080484E80F00BA68FB69DA606F
:10139000FA68FB695A613A69FB691A627A69FB6902
:1013A0001A63BA69FB699A6000BFBD4690BC04B07D
:1013B000704780B588B000AF3B461846FFF714FD74
:1013C0003B6803F00F03063BFB61FB69DBB2184689
:1013D0002037BD4680BD000090B585B002AF786073
:1013E0007B68002B12D014210A48FFF7FDFD03464D
:1013F000002B0CD1FFF7DDFF03461A46054B019287
:101400001A6900920FCB7C68A04700E000BF0C3740
:10141000BD4690BD8C00002080B500AF024800F0B2
:10142000B9FB0346184680BD2801002080B500AFF7
:10143000044800F031FB03461846FFF793FC0346CF
:10144000184680BD5001002080B500AF044800F070
:1014500023FB03461846FFF785FC0346184680BD6C
:101460007801002080B584B004AF3C21774806F0B5
:10147000BFF80421764805F077FF0821744805F08D
:1014800073FF0821734805F06FFF0C21714805F0C8
:101490006BFF08230293042301936D4B00930023F9
:1014A000002200216C4801F020FA00230293082357
:1014B0000193684B0093002300220021674801F04C
:1014C00014FA002302930C230193624B0093002330
:1014D00000220021624801F008FA00230293002351
:1014E00001930023009301235E4A01215E4801F02D
:1014F000FCF900230293002301930023009310239F
:10150000584A0121594801F0F0F9594A4FF4007145
:10151000584800F099FA564A4FF40071564800F0C6
:1015200093FA534B40F6CF524849544800F09EFA84
:10153000534B544AC3F89421514B4FF00002C3F867
:101540009C214F4B4FF00002C3F8A8214C4B4FF0A9
:101550000002C3F8B8214A4B454AC3F89021484BD2
:10156000494AC3F8C421464B484AC3F8C821444BF2
:10157000474AC3F8A421424B464AC3F8D821404BFE
:10158000414AC3F8E0213E4B4FF00002C3F8EC2182
:101590003B4B4FF00002C3F8FC21394B344AC3F8EF
:1015A000D421374B3C4AC3F80822354B3B4AC3F899
:1015B0000C22334B364AC3F8E821314B384AC3F882
:1015C00050212F4B334AC3F858212D4B4FF00002C6
:1015D000C3F864212A4B4FF00002C3F87421284B52
:1015E000234AC3F84C21264B2E4AC3F88021244BB2
:1015F0002D4AC3F88421224B254AC3F86021204B91
:101600004FF07C52C3F80C211D4B224AC3F8142121
:101610001B4B4FF00002C3F82021194B4FF0000282
:10162000C3F83021164B124AC3F80821144B1D4A47
:10163000C3F83C21124B1C4AC3F84021104B144AFA
:10164000C3F81C2100BFBD4680BD00BFBC05002003
:101650002C0500207405002010010020B00000209F
:10166000C800002000080140E0000020F800002031
:101670000AD7A33B50010020780100202801002058
:10168000A00000200000404000009643000096C3E8
:10169000000048430000204100007A4400007AC462
:1016A000CDCC4C3F0000FA430000FAC384B080B5B3
:1016B00000AF07F1080C8CE80F0097F84C30013BA5
:1016C000032B33D801A252F823F000BFDD16000827
:1016D000F11600080517000819170008174B03F545
:1016E000807307F108014422184606F0C7FD1EE08A
:1016F000124B03F5A27307F108014422184606F0C5
:10170000BDFD14E00D4B03F5C47307F1080144223D
:10171000184606F0B3FD0AE0084B03F5E67307F13F
:1017200008014422184606F0A9FD00E000BF00BFF2
:10173000BD46BDE8804004B0704700BFA000002057
:1017400080B582B000AF78600B46FB70FB78013B40
:10175000032B33D801A252F823F000BF6D17000805
:101760008117000895170008A91700087A681A4B16
:10177000104603F580734422194606F07FFD27E0EA
:101780007A68154B104603F5A2734422194606F0F9
:1017900075FD1DE07A68104B104603F5C4734422B2
:1017A000194606F06BFD13E07A680B4B104603F503
:1017B000E6734422194606F061FD09E000BF7A682D
:1017C000054B104603F5E6734422194606F056FD14
:1017D00078680837BD4680BDA000002084B0B0B452
:1017E00000AF07F10C0484E80F00094B03F18804F3
:1017F00007F10C050FCD0FC40FCD0FC495E8030002
:1018000084E8030000BFBD46B0BC04B0704700BF11
:10181000A0000020B0B483B000AF78607A68084BB5
:10182000154603F188040FCC0FC50FCC0FC594E803
:10183000030085E8030078680C37BD46B0BC7047EC
:10184000A000002084B0B0B400AF07F10C0484E81D
:101850000F0097F83430002B0DD1104B03F1B0047A
:1018600007F10C050FCD0FC40FCD0FC495E8030091
:1018700084E803000CE0094B03F1D80407F10C05E0
:101880000FCD0FC40FCD0FC495E8030084E803000B
:1018900000BFBD46B0BC04B0704700BFA000002030
:1018A000B0B483B000AF78600B46FB70FB78002BC0
:1018B0000DD17A680F4B154603F1B0040FCC0FC55C
:1018C0000FCC0FC594E8030085E803000CE07A68AC
:1018D000084B154603F1D8040FCC0FC50FCC0FC52C
:1018E00094E8030085E8030078680C37BD46B0BC77
:1018F000704700BFA0000020B0B483B000AF786094
:101900000B46FB70FB78042B48D801A252F823F059
:10191000251900083D190008551900086D1900081F
:10192000851900087A68254B154603F110040FCC81
:101930000FC594E8030085E803003AE07A681F4B7E
:10194000154603F128040FCC0FC594E8030085E881
:1019500003002EE07A68194B154603F140040FCCC2
:101960000FC594E8030085E8030022E07A68134B72
:10197000154603F158040FCC0FC594E8030085E821
:10198000030016E07A680D4B154603F170040FCC86
:101990000FC594E8030085E803000AE07A68074B66
:1019A000154603F170040FCC0FC594E8030085E8D9
:1019B000030078680C37BD46B0BC7047A00000201B
:1019C00080B400AF024B1B681846BD4680BC704710
:1019D000A000002080B483B000AF7860034A7B6829
:1019E000136000BF0C37BD4680BC7047A0000020CC
:1019F00080B483B000AF0346FB71FB79002B02D1AA
:101A0000044B5B6801E0034B9B6818460C37BD46EE
:101A100080BC7047A000002080B483B000AF786025
:101A20000B46FB70FB78002B03D1064A7B685360A2
:101A300002E0044A7B68936000BF0C37BD4680BC5F
:101A4000704700BFA000002080B485B000AFF860F0
:101A50000B467A607B817A89FB681A61FB687A6839
:101A60005A6200BF1437BD4680BC704780B485B051
:101A700000AFF860B9603B601346FB80FB68BA6852
:101A80001A60FA88FB681A61FB683A685A6200BFFC
:101A90001437BD4680BC7047B0B582B000AF7860E7
:101AA0007B685A687B68DB68D31A1846FEF740FFEC
:101AB00002467B685B6A19461046FFF741F8034609
:101AC0001C467B681B699B001846FEF72DFF0346EA
:101AD00019462046FFF734F803462D491846FEF70D
:101AE0007BFF03461A467B685A617B68DB691846B0
:101AF000FEF7BCFD22A3D3E90023FEF729FB024633
:101B00000B4614461D467B685B691846FEF7AEFD22
:101B10001DA3D3E90023FEF71BFB02460B4620461C
:101B20002946FEF745FC02460B4614461D467B68D7
:101B30009B691846FEF79AFD13A3D3E90023FEF72D
:101B400007FB02460B4620462946FEF731FC0246BB
:101B50000B4610461946FEF7E1FD02467B68DA6146
:101B60007B685A697B689A617B685A687B68DA602F
:101B70007B685B6918460837BD46B0BDAFF300808F
:101B80008716D9CEF753EB3FC217265305A3B23FB2
:101B90000000704290B583B000AF78607B681B682E
:101BA0001B685B6A1AB27B685B681A447B685A6080
:101BB0007B681B681B6800225A627B685B6818465A
:101BC000FEF7B6FE034610491846FEF705FF03462A
:101BD0001C467B681B691846FEF7A6FE03464FF0BD
:101BE00081411846FEF7F8FE034619462046FEF7E7
:101BF000A7FF03461A467B681A627B681B6A184671
:101C00000C37BD4690BD00BF0000B44380B485B022
:101C100000AFF860B9607A60FB68064A1A60BB687A
:101C2000054A1A607B6880221A6000BF1437BD46DF
:101C300080BC7047B00200200403002080B586B04D
:101C400002AF78600221786804F0CDF8002178684E
:101C5000FFF780FA0346FB730023BB600C4B186848
:101C6000F97B07F1080300930023032203F03CFBF8
:101C7000BB68002B07D0074B4FF080521A60BFF3B0
:101C80004F8FBFF36F8F00BF1037BD4680BD00BFC1
:101C90000C06002004ED00E080B586B002AF78604D
:101CA0001021786804F09FF801217868FFF752FA54
:101CB0000346FB730023BB600C4B1868F97B07F1EC
:101CC000080300930023032203F00EFBBB68002BE4
:101CD00007D0074B4FF080521A60BFF34F8FBFF30E
:101CE0006F8F00BF1037BD4680BD00BF0C060020BF
:101CF00004ED00E080B584B000AF0346FB80FB88B4
:101D0000082B16D14FF400411F4804F0FFFC034696
:101D1000002B07D01D4BD3F8B83001331B4AC2F853
:101D2000B83006E0194BD3F8B830013B174AC2F877
:101D3000B830FB88802B15D14021154804F0E6FC13
:101D40000346002B07D0114BD3F8E03001330F4A84
:101D5000C2F8E03006E00D4BD3F8E030013B0B4A0F
:101D6000C2F8E0300023FB60FB68002B07D0094B72
:101D70004FF080521A60BFF34F8FBFF36F8F00BFD9
:101D80001037BD4680BD00BF00080140A000002004
:101D9000000C014004ED00E090B587B004AF274887
:101DA00003F094FD1621254803F0F8FF244B1B682F
:101DB0009BB21B02FB80FB8843F0130399B2FB88A4
:101DC00043F00C039AB2FB8843F00B0398B2FB88F4
:101DD00043F014039BB20024029400240194009366
:101DE00003461648FFF7CCF9FB8843F00F0399B27E
:101DF000FB8843F010039AB2FB8843F0110398B2BA
:101E0000FB8843F012039BB2002402940124019446
:101E1000009303460948FFF7B3F900230293022316
:101E20000193002300930423002204210348FFF7B9
:101E3000D8F900BF0C37BD4690BD00BF0405002097
:101E40000000010884B0B0B5A0B00EAF07F158048F
:101E500084E80F003B1D97F86C2011461846FFF7E9
:101E60006FFC3B1D0193BB6E009307F158030FCB32
:101E7000FFF784FA97F86C300D936D4607F1140460
:101E80000FCC0FC50FCC0FC50FCC0FC523682B602F
:101E90003B1D0FCBFFF70AFC00BF4837BD46BDE82E
:101EA000B04004B07047000080B588B000AF034672
:101EB000FB73FB7B0B3B092B00F2828001A252F8E3
:101EC00023F000BF731F0008931F0008ED1E0008D9
:101ED0002F1F0008B91F0008B91F0008B91F00080C
:101EE000C11F0008C11F0008651F0008FFF79EFA08
:101EF00003461846FEF71CFD0346BB61FFF7A4FA34
:101F000003461846FEF714FD0346BB610D20FEF79D
:101F10008DFF07F1180308211846FEF79FFF2B4B92
:101F20001B68DBB219462A48FFF7D4F849E0FFF7EF
:101F300073FA03461846FEF799FB02460B46C7E9BB
:101F400006230E20FEF772FF07F11803082118463A
:101F5000FEF784FF1D4B1B68DBB219461C48FFF7D8
:101F6000B9F82EE0FFF79EF903461A46194B1A708E
:101F700027E007F110031846FFF7ACF9D7E904236F
:101F800010461946FEF7CAFB03461846FFF722FD26
:101F900017E03B461846FFF79DF9D7E90023C7E94C
:101FA00004233B6900211846FFF736FD7B690121B8
:101FB0001846FFF731FD04E00748FFF70DFA00E08F
:101FC00000BF00BF2037BD4680BD00BF0000010834
:101FD0000405002020060020451E0008B0B5B6B05C
:101FE00010AFF8640B4687F84B3097F84B30013B45
:101FF000122B00F2C38001A252F823F061200008E6
:102000007D2100087D2100087D2100087D21000838
:102010007D2100087D2100087D2100087D21000828
:102020007D2100087D2100087D2100087D21000818
:102030007D21000879200008B1200008F520000863
:102040003921000849200008012387F853304E4BFE
:10205000186807F153010023012201F095FF8EE07B
:10206000012387F85230494B186807F152010023C9
:10207000012201F089FF82E007F154030221184692
:10208000FFF75EFB02230E936D4607F160040FCC51
:102090000FC50FCC0FC50FCC0FC594E8030085E822
:1020A000030007F154030ECBF86CFFF7C7F866E0A6
:1020B0003B4601211846FFF743FB07F1540339461D
:1020C0004422184606F0DAF801230E936D4607F114
:1020D00060040FCC0FC50FCC0FC50FCC0FC594E813
:1020E000030085E8030007F154030ECBF86CFFF7FB
:1020F000A5F844E03B4603211846FFF721FB07F112
:10210000540339464422184606F0B8F803230E93C8
:102110006D4607F160040FCC0FC50FCC0FC50FCC77
:102120000FC594E8030085E8030007F154030ECBC4
:10213000F86CFFF783F822E03B4604211846FFF7CE
:10214000FFFA07F1540339464422184606F096F880
:1021500004230E936D4607F160040FCC0FC50FCC1E
:102160000FC50FCC0FC594E8030085E8030007F105
:1021700054030ECBF86CFFF761F800E000BF00BF1E
:102180009837BD46B0BD00BF1C06002018060020D1
:1021900080B483B000AF7860FEE780B483B000AF56
:1021A000786000BF00BF0C37BD4680BC70470000A0
:1021B000B0B596B000AF06F003F800F071F800F08B
:1021C0006BFA00F095F900F013FA00F0AFF800F0A8
:1021D000E3F800220121012001F078FE0346274A9E
:1021E000136000220121012001F070FE0346244A01
:1021F000136000220421022001F068FE0346214AF8
:102200001360FFF72FF9204B07F13C041D460FCD5B
:102210000FC495E8070084E8070007F13C0300219C
:10222000184601F014F90346184A1360184B07F1D9
:1022300020041D460FCD0FC495E8070084E8070071
:1022400007F120030021184601F001F90346114A65
:102250001360114B3C1D1D460FCD0FC495E80700C0
:1022600084E807003B1D0021184601F0F0F8034602
:102270000A4A136001F0E4F8FEE700BF18060020E8
:102280001C06002014060020BC8200080406002062
:10229000E082000808060020048300080C060020E5
:1022A00080B590B000AF07F118032822002118462E
:1022B00005F0B8FF3B1D00221A605A609A60DA6090
:1022C0001A610123BB614FF48033FB6100233B6241
:1022D0000123BB6202237B634FF48033BB634FF463
:1022E000E013FB6307F11803184604F057FA03469E
:1022F000002B01D000F0F4FA0F237B600223BB60B7
:102300000023FB604FF480633B6100237B613B1D36
:102310000221184604F0C4FC0346002B01D000F053
:10232000DFFA00BF4037BD4680BD000080B500AF7A
:10233000174B184A1A60164B09225A60144B002298
:102340009A60134B0022DA60114B00221A61104B85
:102350004FF480125A610E4B00221A760C4B002269
:102360005A760B4B00229A76094B0022DA76084BFC
:1023700000221A77064B00225A77054803F0E2F84C
:102380000346002B01D000F0ABFA00BF80BD00BFB8
:10239000040500200064004080B596B000AF07F14E
:1023A000480300221A605A609A60DA6007F140031D
:1023B00000221A605A6007F1240300221A605A6052
:1023C0009A60DA601A615A619A613B1D20220021ED
:1023D000184605F027FF444B444A1A60424B4722F7
:1023E0005A60414B00229A603F4B40F2E732DA607C
:1023F0003D4B00221A613C4B00225A613A4B0022AD
:102400009A61394804F0B7FE0346002B01D000F072
:1024100067FA4FF48053BB6407F14803194632480A
:1024200005F03EFB0346002B01D000F059FA2E4880
:1024300004F042FF0346002B01D000F051FA0023C4
:102440003B6400237B6407F140031946264804F0EF
:10245000D1FD0346002B01D000F042FA60237B62DD
:102460000023BB620023FB6200233B6300237B63EA
:102470000023BB630023FB6307F1240304221946F6
:10248000194805F04BFA0346002B01D000F028FA5A
:1024900007F1240308221946134805F03FFA0346C2
:1024A000002B01D000F01CFA00237B600023BB60EE
:1024B0000023FB6000233B6100237B614FF400534A
:1024C000BB6100233B623B1D1946074804F0F0FD49
:1024D0000346002B01D000F003FA034800F048FE49
:1024E00000BF5837BD4680BD2C050020002C0140A0
:1024F00080B58EB000AF07F1280300221A605A6041
:102500009A60DA6007F1200300221A605A603B1DCE
:1025100000221A605A609A60DA601A615A619A6100
:10252000324B4FF080421A60304B47225A602F4B9B
:1025300000229A602D4B40F2E732DA602B4B0022EA
:102540001A612A4B00229A61284804F014FE0346BF
:10255000002B01D000F0C4F94FF48053BB6207F1A7
:1025600028031946214805F09BFA0346002B01D0A9
:1025700000F0B6F91D4804F09FFE0346002B01D081
:1025800000F0AEF900233B6200237B6207F12003D9
:102590001946164804F02EFD0346002B01D000F02A
:1025A0009FF960237B600023BB600023FB60002356
:1025B0007B613B1D082219460C4805F0AFF9034624
:1025C000002B01D000F08CF93B1D0C221946074866
:1025D00005F0A4F90346002B01D000F081F903486F
:1025E00000F0C6FD00BF3837BD4680BD7405002031
:1025F00080B58CB000AF07F10C03242200211846EF
:1026000005F010FE3B1D00221A605A60204B214A43
:102610001A601F4B00225A601D4B00229A601C4B0F
:102620004FF6FF72DA601A4B00221A61184B002233
:102630009A610323FB6000233B6101237B6100233C
:10264000BB610023FB6100233B6201237B6200230B
:10265000BB620023FB6207F10C0319460C4804F02F
:1026600025FF0346002B01D000F03AF900237B60E0
:102670000023BB603B1D1946054804F0BBFC034624
:10268000002B01D000F02CF900BF3037BD4680BDD3
:10269000BC0500200004004080B588B000AF07F101
:1026A000100300221A605A609A60DA603D4B9B6901
:1026B0003C4A43F0200393613A4B9B6903F02003AB
:1026C000FB60FB68374B9B69364A43F00403936118
:1026D000344B9B6903F00403BB60BB68314B9B69BF
:1026E000304A43F0080393612E4B9B6903F00803C3
:1026F0007B607B68002211212B4804F01EF8112317
:102700003B6101237B610023BB610223FB6107F175
:1027100010031946244803F075FE20233B61002373
:102720007B610023BB6107F1100319461E4803F0CB
:1027300069FE4FF400433B6100237B610123BB61D1
:1027400007F110031946184803F05CFE88233B612B
:10275000164B7B610123BB6107F110031946144836
:1027600003F050FE40233B6100237B610123BB61EA
:1027700007F1100319460E4803F044FE002205211C
:10278000092003F014FE092003F02DFE002205218C
:10279000172003F00CFE172003F025FE00BF2037A2
:1027A000BD4680BD0010024000080140000011102D
:1027B000000C014080B500AF194B1B68012219497C
:1027C000184601F0DFFC0346012B27D1FFF7F8F88C
:1027D0000346184600F0D7F94FF47A7002F04CF82F
:1027E0000221114800F078FA03210F4800F074FA32
:1027F0000020FFF7FDF803460021184600F006FA16
:102800000120FFF7F5F803460121184600F0FEF914
:1028100041F2883002F030F800F079FA00BF80BD54
:10282000180600201006002000007A4480B582B00F
:1028300000AF7860012000F056FEFBE780B582B063
:1028400000AF7860FFF7B6FF052000F04CFEF9E717
:1028500080B58AB000AF7860FFF79EFA07F12402D6
:102860004FF0FF330021002002F0E4FC0346002B70
:10287000F4D007F108031846FEF7B6FABB681A0A47
:102880000C4B1B689A4210D17B69022B05D17B6AE5
:10289000DBB219460848FFF7A1FB7B69002B04D186
:1028A0007B6ADBB21846FFF7FFFA1221024803F0F9
:1028B00075FAD3E7000001080405002080B582B056
:1028C00000AF78607B681B68044A934201D105F031
:1028D0008DFC00BF0837BD4680BD00BF000800402A
:1028E00080B400AF72B600BFFEE780B485B000AF21
:1028F000F8607A601A460B46FB7213463B81FB6810
:102900001B78012B06D1FB687A685A60FB683A890C
:102910001A8108E0FB68BA69DA60FB68FA691A6133
:10292000FB683A6A5A6100BF1437BD4680BC7047E5
:1029300080B584B000AF786039603B68002BB8BFC9
:102940005B42FB607B681B78012B0DD17B6858686C
:102950007B6819893B68002B14BF01230023DBB27D
:102960001A4603F0EAFEB8E07B681B69002B05D12C
:102970007B68DB681B6800225A6318E07B681B6970
:10298000042B05D17B68DB681A68002393630EE093
:102990007B681B69082B05D17B68DB681A680023FC
:1029A000D36304E07B68DB681A68002313647B68E8
:1029B0005B69002B05D17B68DB681B6800225A63CA
:1029C00018E07B685B69042B05D17B68DB681A68BB
:1029D000002393630EE07B685B69082B05D17B685D
:1029E000DB681A680023D36304E07B68DB681A683D
:1029F000002313647B685B69002B23D17B681B6910
:102A0000002B05D17B68DB681B68FA685A6364E0B9
:102A10007B681B69042B05D17B68DB681A68FB683F
:102A200093635AE07B681B69082B05D17B68DB68E0
:102A30001A68FB68D36350E07B68DB681A68FB6840
:102A400013644AE03B68002B23DD7B681B69002B85
:102A500005D17B68DB681B68FA685A633DE07B68D8
:102A60001B69042B05D17B68DB681A68FB689363DC
:102A700033E07B681B69082B05D17B68DB681A682B
:102A8000FB68D36329E07B68DB681A68FB68136422
:102A900023E07B685B69002B05D17B68DB681B68E2
:102AA000FA685A6319E07B685B69042B05D17B687F
:102AB000DB681A68FB6893630FE07B685B69082B2F
:102AC00005D17B68DB681A68FB68D36305E07B6827
:102AD000DB681A68FB681364FFE700BF1037BD4668
:102AE00080BDB0B5B2B00EAF786007F174030421B9
:102AF0001846FEF701FF07F14C031846FEF78AFE61
:102B000007F1080304211846FEF71AFE07F14C03EB
:102B10001846FEF7C1FF024607F108037968184618
:102B200000F012F9C7F88C00D7F88C00FEF71AF9FC
:102B3000024607F1740311461846FFF7F9FE6D4689
:102B400007F15C040FCC0FC594E8030085E803008F
:102B500007F14C030FCBFEF741FE04230D936D46A6
:102B600007F118040FCC0FC50FCC0FC50FCC0FC544
:102B700023682B6007F108030FCBFEF797FD00BF1A
:102B80009037BD46B0BDB0B5ACB00EAF786007F1C0
:102B90004C031846FEF73EFE07F1080303211846D2
:102BA000FEF7CEFD07F14C031846FEF7F3FF024691
:102BB00007F108037968184600F0C6F87867032320
:102BC0000D936D4607F118040FCC0FC50FCC0FC540
:102BD0000FCC0FC523682B6007F108030FCBFEF75E
:102BE00065FD6D4607F15C040FCC0FC594E803004A
:102BF00085E8030007F14C030FCBFEF7EFFD786F7C
:102C0000FFF76FFF00BF7837BD46B0BDB0B5B4B0B9
:102C10000EAF78600B46FB7007F17803FA78114627
:102C20001846FEF769FE07F15003FA781146184678
:102C3000FEF736FEFB78002B03D1012387F897308F
:102C400002E0022387F8973007F10C0397F89720EA
:102C500011461846FEF774FD07F150031846FEF7BB
:102C60001BFF024607F10C037968184600F06CF868
:102C7000C7F89000D7F89000FEF774F8024607F105
:102C8000780311461846FFF753FEFB7806936D460E
:102C900007F160040FCC0FC594E8030085E803003A
:102CA00007F150030FCBFEF7CDFD97F897300D934A
:102CB0006D4607F11C040FCC0FC50FCC0FC50FCC10
:102CC0000FC523682B6007F10C030FCBFEF7EEFC5A
:102CD00000BF9837BD46B0BD80B588B000AF786002
:102CE0000B46FB7007F10803FA7811461846FEF709
:102CF00003FE7868FEF736F8024607F1080311462E
:102D00001846FFF715FE00BF2037BD4680BD80B5D1
:102D100000AF02214FF00000FFF7DEFF03214FF06C
:102D20000000FFF7D9FF00214FF00000FFF76EFF12
:102D300001214FF00000FFF769FF4FF00000FFF79F
:102D4000D0FE00BF80BD0000F0B585B000AFF860D8
:102D5000B9607A607968B868FDF734FD03461A46B1
:102D6000FB681A60FB681B6877491846FDF7F0FF9F
:102D70000346002B0DD0FB681B684FF07F511846AF
:102D8000FDF7C8FF0346002B03D0FB684FF000029D
:102D90001A60FB685B694FF000011846FDF7B0FF51
:102DA0000346002B04D0FB684FF00002DA610AE012
:102DB000FB689B6819464FF07E50FDF7C1FE034645
:102DC0001A46FB68DA61FB68DA68FB681B6819461B
:102DD0001046FDF701FE03461A46FB681A61FB68C0
:102DE0009C69FB685A69FB681B6819461046FDF729
:102DF000F3FD03461E46FB68DD69FB689A6BFB68C2
:102E00005B6B19461046FDF7DDFC03461946284664
:102E1000FDF7E2FD034619463046FDF7D5FC0346B3
:102E20001A46FB689B6819461046FDF7D5FD034618
:102E300019462046FDF7C8FC03461A46FB689A610E
:102E4000FB681C6AFB681A68FB685B6819461046D9
:102E5000FDF7B8FC034619462046FDF7BDFD0346C5
:102E60001A46FB689B6819461046FDF769FE034643
:102E70001A46FB685A62FB681B6B19464FF07E507E
:102E8000FDF7A0FC03461A46FB68DB6A19461046AC
:102E9000FDF7A2FD03461C46FB681A6BFB685B6AE4
:102EA00019461046FDF798FD034619462046FDF7E2
:102EB0008BFC03461A46FB689A62FB681A68FB683B
:102EC0005A60FB689A6AFB68DA62FB681A69FB68F9
:102ED0009B6919461046FDF777FC03461A46FB68C6
:102EE0005B6A19461046FDF76FFC03461A46FB68FD
:102EF0005A63FB685A6BFB68DB6B19461046FDF79B
:102F00001DFF0346002B04D0FB68DA6BFB689A6355
:102F100013E0FB685A6BFB681B6C19461046FDF703
:102F200003FF0346002B04D0FB681A6CFB689A630E
:102F300003E0FB685A6BFB689A63FB689B6B18465F
:102F40001437BD46F0BD00BF0000C0BF80B584B0DF
:102F500000AF184B9B69174A43F001039361154B6F
:102F60009B6903F00103BB60BB68124BDB69114A2C
:102F700043F08053D3610F4BDB6903F080537B60D8
:102F80007B6800220F216FF0010003F010FA0A4B5A
:102F90005B68FB60FB6823F0E063FB60FB6843F069
:102FA0000073FB60044AFB68536000BF1037BD46E6
:102FB00080BD00BF001002400000014080B588B015
:102FC00000AF786007F1100300221A605A609A601F
:102FD000DA607B681B68284A934249D1274BDB693A
:102FE000264A43F00073D361244BDB6903F000737E
:102FF000FB60FB68214B9B69204A43F0040393610B
:103000001E4B9B6903F00403BB60BB684FF4006375
:103010003B6100237B610023BB6107F1100319466C
:10302000174803F0EFF94FF480533B6102237B61B3
:103030000323FB6107F110031946114803F0E2F97D
:1030400000220521132003F0B2F9132003F0CBF97D
:1030500000220521142003F0AAF9142003F0C3F97B
:1030600000220521152003F0A2F9152003F0BBF979
:1030700000BF2037BD4680BD006400400010024004
:103080000008014080B485B000AF78607B681B68A1
:10309000124A93420CD1124B9B69114A43F40063CC
:1030A00093610F4B9B6903F40063FB60FB6810E0C6
:1030B0007B681B68B3F1804F0BD1094BDB69084A71
:1030C00043F00103D361064BDB6903F00103BB60EE
:1030D000BB6800BF1437BD4680BC7047002C014060
:1030E0000010024080B588B000AF786007F110038F
:1030F00000221A605A609A60DA607B681B68194A7D
:1031000093422BD1184BDB69174A43F00203D3617A
:10311000154BDB6903F00203FB60FB68124B9B69F4
:10312000114A43F0040393610F4B9B6903F00403BE
:10313000BB60BB68C0233B6100237B610123BB6193
:1031400007F110031946094803F05CF90022052134
:103150001D2003F02CF91D2003F045F900BF203796
:10316000BD4680BD00040040001002400008014040
:1031700080B588B000AF786007F1100300221A60B4
:103180005A609A60DA607B681B681F4A934219D1C3
:103190001E4B9B691D4A43F0040393611B4B9B69C3
:1031A00003F00403FB60FB684FF4C0633B61022340
:1031B0007B610223FB6107F110031946144803F0F9
:1031C00021F91CE07B681B68B3F1804F17D10F4BCE
:1031D0009B690E4A43F0040393610C4B9B6903F017
:1031E0000403BB60BB680C233B6102237B610223A9
:1031F000FB6107F110031946054803F003F900BF0E
:103200002037BD4680BD00BF002C014000100240A9
:103210000008014080B58EB000AF78600023FB62EB
:103220000023BB62002387F83330344BDB69334A19
:1032300043F00403D361314BDB6903F00403FB600B
:10324000FB6807F1100207F114031146184603F05A
:1032500083FE3B6AFB62FB6A002B03D103F068FE2E
:10326000786304E003F064FE03465B007B637B6BE2
:10327000234AA2FB03239B0C013BBB62214B224A46
:103280001A60204B40F2E732DA601E4ABB6A536094
:103290001C4B00221A611B4B00229A60194B002222
:1032A0009A61184803F067FF034687F8333097F8B0
:1032B0003330002B1BD1134803F0ACFF034687F8D3
:1032C000333097F83330002B11D11E2003F08BF8E8
:1032D0007B680F2B08D8002279681E2003F067F85E
:1032E0000A4A7B68136002E0012387F8333097F8BD
:1032F000333018463837BD4680BD00BF001002404D
:1033000083DE1B4324060020000800400800002044
:1033100080B400AFFEE780B400AFFEE780B400AF3A
:10332000FEE780B400AFFEE780B400AFFEE780B4F4
:1033300000AF00BFBD4680BC704780B500AF08201D
:1033400003F014FA00BF80BD80B500AF024802F060
:1033500070FD00BF80BD00BF0405002080B500AF38
:10336000024802F066FD00BF80BD00BF04050020DA
:1033700080B500AF024802F05CFD00BF80BD00BF19
:103380000405002080B500AF802003F0EFF900BFF6
:1033900080BD000080B500AF024804F0B7F900BF5F
:1033A00080BD00BFBC05002080B500AF024804F01E
:1033B000ADF900BF80BD00BF2406002080B400AF7F
:1033C00000BFBD4680BC7047FFF7F8FF0B480C49B3
:1033D0000C4A002302E0D458C4500433C4188C4271
:1033E000F9D3094A094C002301E013600432A242D8
:1033F000FBD304F01FFFFEF7DBFE70470000002048
:10340000100000205C83000810000020BC13002086
:10341000FEE780B485B000AF0346FB800023FB606D
:10342000B7F90630842B05D0B7F90620FB681344A2
:103430000333FB60FB6818461437BD4680BC7047F9
:1034400080B500AF01F04CFA0023184680BDF0B5FE
:1034500089B004AF786039607B685B69002B20D04D
:103460007B689B69002B1CD07B685C687B681D684F
:103470007B681E697B68B3F908301846FFF7C9FFFF
:1034800001467B685B697A689269029201930091B8
:103490003B6832462946204601F064F80346FB604B
:1034A0001CE07B685C687B681D687B681B699EB25A
:1034B0007B68B3F908301846FFF7ABFF024607F107
:1034C0000C03019300923B6832462946204601F0E6
:1034D000A5F80346012B01D0002300E0FB68184645
:1034E0001437BD46F0BD80B584B000AF78607B680E
:1034F000FB60FB68002B01D0FB6800E0012318464D
:1035000001F0BAF9002318461037BD4680BD80B4DB
:1035100083B000AF78607B6803F108027B685A6073
:103520007B684FF0FF329A607B6803F108027B688A
:10353000DA607B6803F108027B681A617B6800220D
:103540001A6000BF0C37BD4680BC704780B483B0A2
:1035500000AF78607B6800221A6100BF0C37BD465F
:1035600080BC704780B485B000AF786039607B68FC
:103570005B68FB603B68FA685A60FB689A683B6866
:103580009A60FB689B683A685A60FB683A689A6080
:103590003B687A681A617B681B685A1C7B681A60F2
:1035A00000BF1437BD4680BC704780B485B000AF03
:1035B000786039603B681B68BB60BB68B3F1FF3F54
:1035C00003D17B681B69FB600CE07B680833FB6000
:1035D00002E0FB685B68FB60FB685B681B68BA68BD
:1035E0009A42F6D2FB685A683B685A603B685B684F
:1035F0003A689A603B68FA689A60FB683A685A6071
:103600003B687A681A617B681B685A1C7B681A6081
:1036100000BF1437BD4680BC704780B485B000AF92
:1036200078607B681B69FB607B685B687A6892687E
:103630009A607B689B687A6852685A60FB685B682E
:103640007A689A4203D17B689A68FB685A607B6803
:1036500000221A61FB681B685A1EFB681A60FB682F
:103660001B6818461437BD4680BC704780B485B0CF
:1036700000AFF860B9607A60FB68043BFB60FB68F0
:103680004FF080721A60FB68043BFB60BB6823F05C
:103690000102FB681A60FB68043BFB60084AFB6898
:1036A0001A60FB68143BFB607A68FB681A60FB6871
:1036B000203BFB60FB6818461437BD4680BC704752
:1036C000C536000880B485B000AF00237B60124B84
:1036D0001B68B3F1FF3F0AD04FF0500383F311880A
:1036E000BFF36F8FBFF34F8FFB6000BFFEE74FF05C
:1036F000500383F31188BFF36F8FBFF34F8FBB600D
:1037000000BF00BF7B68002BFCD000BF00BF143798
:10371000BD4680BC704700BF0400002000000000D0
:10372000074B19680868B0E8F00F80F30988BFF309
:103730006F8F4FF0000080F311884EF00D0E704730
:103740008C12002000BF00BF06480068006880F3AC
:10375000088862B661B6BFF34F8FBFF36F8F00DF8B
:1037600000BF00BF08ED00E080B584B000AF324B71
:10377000FB60FB681B78DBB27B60FB68FF221A7082
:10378000FB681B78DBB2FB70FB78DBB203F0500305
:10379000DAB22A4B1A702A4B07221A6009E0284B2A
:1037A0001B68013B264A1360FB78DBB25B00DBB28F
:1037B000FB70FB78DBB203F08003802BEFD0204B53
:1037C0001B68C3F10703042B0AD04FF0500383F3A7
:1037D0001188BFF36F8FBFF34F8FBB6000BFFEE751
:1037E000174B1B681B02164A1360154B1B6803F42A
:1037F000E063134A13607B68DAB2FB681A70114BFE
:103800001B68104A43F4700313600E4B1B680D4A8B
:1038100043F07043136000F0B9F80B4B00221A60BC
:10382000FFF792FF01F024FAFFF74CFF0023184640
:103830001037BD4680BD00BF00E400E06C060020EC
:103840007006002020ED00E00400002080B483B06A
:1038500000AF4FF0500383F31188BFF36F8FBFF3B6
:103860004F8F7B6000BF0F4B1B6801330D4A136005
:103870000C4B1B68012B0FD10B4B1B68DBB2002BD1
:103880000AD04FF0500383F31188BFF36F8FBFF35B
:103890004F8F3B6000BFFEE700BF0C37BD4680BCCA
:1038A000704700BF0400002004ED00E080B483B046
:1038B00000AF114B1B68002B0AD14FF0500383F36C
:1038C0001188BFF36F8FBFF34F8F7B6000BFFEE7A0
:1038D000094B1B68013B084A1360074B1B68002B10
:1038E00005D100233B603B6883F3118800BF00BF14
:1038F0000C37BD4680BC704704000020000000006B
:10390000EFF30980BFF36F8F0D4B1A6820E9F00FBA
:1039100010602DE908404FF0500080F3118801F04D
:10392000A7F94FF0000080F31188BDE8084019683E
:103930000868B0E8F00F80F30988BFF36F8F704715
:103940008C12002000BF00BF80B582B000AF4FF0E6
:10395000500383F31188BFF36F8FBFF34F8F7B60EA
:1039600000BF01F0C7F80346002B03D0064B4FF011
:1039700080521A6000233B603B6883F3118800BFCC
:1039800000BF0837BD4680BD04ED00E080B400AF45
:103990000A4B00221A600A4B00221A60094B1B686E
:1039A000094AA2FB03239B09084A013B1360034B0E
:1039B00007221A6000BFBD4680BC704710E000E0DF
:1039C00018E000E000000020D34D621014E000E099
:1039D00080B485B000AFEFF30583FB60FB680F2B6D
:1039E00014D9164AFB6813441B78FB72144B1B78DE
:1039F000FA7A9A420AD24FF0500383F31188BFF348
:103A00006F8FBFF34F8F7B6000BFFEE70D4B1B68CE
:103A100003F4E0620C4B1B689A420AD94FF0500342
:103A200083F31188BFF36F8FBFF34F8F3B6000BFED
:103A3000FEE700BF1437BD4680BC7047F0E300E0EE
:103A40006C0600200CED00E07006002080B58AB006
:103A500000AF78600023FB6100F0A2FF584B1B68A9
:103A6000002B01D100F010F9564B1A687B68134007
:103A7000002B40F08E807B68002B1DD008227B68D5
:103A800013447B607B6803F00703002B14D07B6832
:103A900023F0070308337B607B6803F00703002BE8
:103AA0000AD04FF0500383F31188BFF36F8FBFF339
:103AB0004F8F7B6100BFFEE77B68002B69D0424BD4
:103AC0001B687A689A4264D8404B3B623F4B1B6844
:103AD0007B6204E07B6A3B627B6A1B687B627B6A79
:103AE0005B687A689A4203D97B6A1B68002BF1D124
:103AF000334B1B687A6A9A424BD03B6A1B68082298
:103B00001344FB617B6A1A683B6A1A607B6A5A68D5
:103B10007B68D21A08235B009A421FD97A6A7B68B5
:103B20001344BB61BB6903F00703002B0AD04FF0BD
:103B3000500383F31188BFF36F8FBFF34F8F3B6147
:103B400000BFFEE77B6A5A687B68D21ABB695A607D
:103B50007B6A7A685A60B86900F0F8F81A4B1A68FC
:103B60007B6A5B68D31A184A1360174B1A68184BA4
:103B70001B689A4203D2144B1B68154A13607B6A78
:103B80005A68104B1B681A437B6A5A607B6A002292
:103B90001A6000F013FFFB6903F00703002B0AD043
:103BA0004FF0500383F31188BFF36F8FBFF34F8F34
:103BB000FB6000BFFEE7FB6918462837BD4680BDA5
:103BC0007C12002088120020801200207412002035
:103BD0008412002080B586B000AF78607B687B617E
:103BE0007B68002B48D008235B427A6913447B61D1
:103BF0007B693B613B695A68214B1B681340002B72
:103C00000AD14FF0500383F31188BFF36F8FBFF3D6
:103C10004F8FFB6000BFFEE73B691B68002B0AD09B
:103C20004FF0500383F31188BFF36F8FBFF34F8FB3
:103C3000BB6000BFFEE73B695A68114B1B6813402D
:103C4000002B19D03B691B68002B15D13B695A68C2
:103C50000B4B1B68DB431A403B695A6000F0A0FE27
:103C60003B695A68074B1B681344064A136038695E
:103C700000F06CF800F0A2FE00BF1837BD4680BD12
:103C8000881200208012002080B485B000AF4FF46D
:103C90004063BB60274BFB60FB6803F00703002B0E
:103CA0000CD0FB680733FB60FB6823F00703FB6065
:103CB000BA68FB68D31A1F4A1344BB60FB687B6079
:103CC0001D4A7B6813601C4B00225A607B68BA68EF
:103CD0001344FB600822FB689B1AFB60FB6823F01F
:103CE0000703FB60FB68154A1360144B1B68002236
:103CF0005A60124B1B6800221A607B683B603B686D
:103D0000FA68D21A3B685A600C4B1A683B681A6012
:103D10003B685B680A4A13603B685B68094A13604A
:103D2000094B4FF000421A6000BF1437BD4680BCFB
:103D3000704700BF74060020741200207C1200201F
:103D400084120020801200208812002080B485B0E8
:103D500000AF7860274BFB6002E0FB681B68FB60EC
:103D6000FB681B687A689A42F7D8FB68BB60FB68FF
:103D70005B68BA6813447A689A4208D1FB685A684B
:103D80007B685B681A44FB685A60FB687B607B68F1
:103D9000BB607B685B68BA681A44FB681B689A4220
:103DA00018D1FB681A68144B1B689A420DD07B68C7
:103DB0005A68FB681B685B681A447B685A60FB683A
:103DC0001B681A687B681A6008E00B4B1A687B68EE
:103DD0001A6003E0FB681A687B681A60FA687B68FF
:103DE0009A4202D0FB687A681A6000BF1437BD4659
:103DF00080BC7047741200207C12002080B584B013
:103E000000AF786039607B68FB60FB68002B0AD1EB
:103E10004FF0500383F31188BFF36F8FBFF34F8FC1
:103E2000BB6000BFFEE7FFF711FDFB681A68FB6887
:103E3000DB6BF968096C01FB03F31A44FB685A60F9
:103E4000FB6800229A63FB681A68FB689A60FB684B
:103E50001A68FB68DB6B013BF968096C01FB03F333
:103E60001A44FB68DA60FB68FF2283F84420FB6891
:103E7000FF2283F845203B68002B14D1FB681B69A7
:103E8000002B1AD0FB681033184600F06FFF034672
:103E9000002B12D00C4B4FF080521A60BFF34F8FA3
:103EA000BFF36F8F09E0FB6810331846FFF72FFB55
:103EB000FB6824331846FFF72AFBFFF7F7FC0123C2
:103EC00018461037BD4680BD04ED00E080B58AB0CD
:103ED00002AFF860B9601346FB71FB68002B0AD192
:103EE0004FF0500383F31188BFF36F8FBFF34F8FF1
:103EF0003B6100BFFEE7BB68002B02D10023FB61E2
:103F000004E0FB68BA6802FB03F3FB61FB6948331A
:103F10001846FFF79BFDB861BB69002B0FD0BB694A
:103F200048337B61BB69002283F84620FA79BB697C
:103F3000009313467A69B968F86800F005F8BB6920
:103F400018462037BD4680BD80B584B000AFF8600C
:103F5000B9607A60FB70BB68002B03D1BB69BA699A
:103F60001A6002E0BB697A681A60BB69FA68DA63B2
:103F7000BB69BA681A640121B869FFF73FFF00BF47
:103F80001037BD4680BD000080B58EB000AFF86030
:103F9000B9607A603B6000237B63FB683B633B6BEB
:103FA000002B0AD14FF0500383F31188BFF36F8FBA
:103FB000BFF34F8FBB6200BFFEE7BB68002B03D18E
:103FC0003B6B1B6C002B01D1012300E00023002B75
:103FD0000AD14FF0500383F31188BFF36F8FBFF303
:103FE0004F8F7B6200BFFEE73B68022B03D13B6B28
:103FF000DB6B012B01D1012300E00023002B0AD150
:104000004FF0500383F31188BFF36F8FBFF34F8FCF
:104010003B6200BFFEE701F069F80346002B02D1C6
:104020007B68002B01D1012300E00023002B0AD183
:104030004FF0500383F31188BFF36F8FBFF34F8F9F
:10404000FB6100BFFEE7FFF701FC3B6B9A6B3B6B2C
:10405000DB6B9A4202D33B68022B29D13A68B968DC
:10406000386B00F06FF9F8623B6B5B6A002B10D085
:104070003B6B2433184600F079FE0346002B13D027
:104080003F4B4FF080521A60BFF34F8FBFF36F8FDB
:104090000AE0FB6A002B07D0394B4FF080521A60C0
:1040A000BFF34F8FBFF36F8FFFF700FC012363E077
:1040B0007B68002B03D1FFF7F9FB00235CE07B6BEF
:1040C000002B06D107F11403184600F0B1FE0123BE
:1040D0007B63FFF7EBFB00F063FCFFF7B7FB3B6B89
:1040E00093F844305BB2B3F1FF3F03D13B6B002246
:1040F00083F844203B6B93F845305BB2B3F1FF3F4C
:1041000003D13B6B002283F84520FFF7CFFB3A1D1C
:1041100007F114031146184600F0A0FE0346002BD9
:1041200024D1386B00F006FA0346002B18D03B6B05
:1041300010337A681146184600F0F4FD386B00F031
:1041400091F900F03BFC0346002B7FF47CAF0C4B55
:104150004FF080521A60BFF34F8FBFF36F8F72E73B
:10416000386B00F07FF900F029FC6CE7386B00F049
:1041700079F900F023FC002318463837BD4680BD8E
:1041800004ED00E080B58CB000AFF860B9607A60F3
:104190000023FB62FB68BB62BB6A002B0AD14FF0B5
:1041A000500383F31188BFF36F8FBFF34F8F3B62D0
:1041B00000BFFEE7BB68002B03D1BB6A1B6C002B62
:1041C00001D1012300E00023002B0AD14FF050035E
:1041D00083F31188BFF36F8FBFF34F8FFB6100BF75
:1041E000FEE700F083FF0346002B02D17B68002B23
:1041F00001D1012300E00023002B0AD14FF050032E
:1042000083F31188BFF36F8FBFF34F8FBB6100BF84
:10421000FEE7FFF71BFBBB6A9B6B7B627B6A002B95
:104220001FD0B968B86A00F0F7F87B6A5A1EBB6AFB
:104230009A63BB6A1B69002B0FD0BB6A1033184608
:1042400000F094FD0346002B07D03D4B4FF0805209
:104250001A60BFF34F8FBFF36F8FFFF727FB012368
:1042600069E07B68002B03D1FFF720FB002362E0AD
:10427000FB6A002B06D107F11003184600F0D8FDA9
:104280000123FB62FFF712FB00F08AFBFFF7DEFA67
:10429000BB6A93F844305BB2B3F1FF3F03D1BB6A12
:1042A000002283F84420BB6A93F845305BB2B3F137
:1042B000FF3F03D1BB6A002283F84520FFF7F6FADF
:1042C0003A1D07F110031146184600F0C7FD0346DA
:1042D000002B23D1B86A00F017F90346002B17D042
:1042E000BB6A24337A681146184600F01BFDB86A91
:1042F00000F0B8F800F062FB0346002B89D1104BA8
:104300004FF080521A60BFF34F8FBFF36F8F80E77B
:10431000B86A00F0A7F800F051FB7AE7B86A00F03D
:10432000A1F800F04BFBB86A00F0EEF80346002B52
:104330003FF46FAF002318463037BD4680BD00BF45
:1043400004ED00E080B586B000AFF860B9607A6037
:1043500000237B61FB689B6B3B61FB681B6C002B44
:104360000DD1FB681B68002B4DD1FB685B681846BC
:1043700000F0DAFE7861FB6800225A6043E07B6857
:10438000002B19D1FB689868FB681B6C1A46B9684A
:1043900003F074FFFB689A68FB681B6C1A44FB68A7
:1043A0009A60FB689A68FB685B689A422BD3FB684B
:1043B0001A68FB689A6026E0FB68D868FB681B6C8B
:1043C0001A46B96803F05AFFFB68DA68FB681B6C91
:1043D0005B421A44FB68DA60FB68DA68FB681B68BA
:1043E0009A4207D2FB685A68FB681B6C5B421A440E
:1043F000FB68DA607B68022B05D13B69002B02D099
:104400003B69013B3B613B695A1CFB689A637B69D2
:1044100018461837BD4680BD80B582B000AF7860C1
:1044200039607B681B6C002B18D07B68DA687B686E
:104430001B6C1A447B68DA607B68DA687B685B68AF
:104440009A4203D37B681A687B68DA607B68D96814
:104450007B681B6C1A46386803F010FF00BF0837F2
:10446000BD4680BD80B584B000AF7860FFF7EEF93F
:104470007B6893F84530FB7311E07B685B6A002B27
:1044800012D07B682433184600F070FC0346002BE2
:1044900001D000F045FDFB7B013BDBB2FB7397F9DC
:1044A0000F30002BE9DC00E000BF7B68FF2283F8BF
:1044B0004520FFF7FBF9FFF7C9F97B6893F8443013
:1044C000BB7311E07B681B69002B12D07B68103333
:1044D000184600F04BFC0346002B01D000F020FDF5
:1044E000BB7B013BDBB2BB7397F90E30002BE9DCE1
:1044F00000E000BF7B68FF2283F84420FFF7D6F975
:1045000000BF1037BD4680BD80B584B000AF786075
:10451000FFF79CF97B689B6B002B02D10123FB60AA
:1045200001E00023FB60FFF7C1F9FB681846103774
:10453000BD4680BD80B584B000AF7860FFF786F9D6
:104540007B689A6B7B68DB6B9A4202D10123FB602C
:1045500001E00023FB60FFF7A9F9FB68184610375C
:10456000BD4680BD80B58EB004AFF860B9607A609A
:104570003B607B6B002B0AD14FF0500383F3118813
:10458000BFF36F8FBFF34F8F3B6200BFFEE7BB6B84
:10459000002B0AD14FF0500383F31188BFF36F8FC4
:1045A000BFF34F8FFB6100BFFEE754233B613B69C4
:1045B000542B0AD04FF0500383F31188BFF36F8F51
:1045C000BFF34F8FBB6100BFFEE7BB6B002B1ED05C
:1045D0007B6B002B1BD0BB6B7B627B6A7A6B1A6395
:1045E0007B6A022283F85120002303937B6A0293A3
:1045F00007F1140301933B6B00933B687A68B96839
:10460000F86800F050F8786A00F0CCF801E0002378
:104610007B617B6918462837BD4680BD80B58CB06C
:1046200004AFF860B9603B601346FB80FB889B00D9
:104630001846FFF70BFA78617B69002B0ED05420E7
:10464000FFF704FAF861FB69002B03D0FB697A6974
:104650001A6305E07869FFF7BDFA01E00023FB610A
:10466000FB69002B17D0FB69002283F85120FA88E0
:1046700000230393FB690293FB6A0193BB6A0093D7
:104680003B68B968F86800F00EF8F86900F08AF83D
:104690000123BB6102E04FF0FF33BB61BB691846E9
:1046A0002037BD4680BD80B588B000AFF860B960E6
:1046B0007A603B603B6B1A6B7B6803F18043013B84
:1046C0009B001344BB61BB6923F00703BB61BB695B
:1046D00003F00703002B0AD04FF0500383F3118837
:1046E000BFF36F8FBFF34F8F7B6100BFFEE70023E7
:1046F000FB6112E0BA68FB69134419783A6BFB69F5
:10470000134434330A461A70BA68FB6913441B78A1
:10471000002B06D0FB690133FB61FB690F2BE9D944
:1047200000E000BF3B6B002283F84320BB6A062BEE
:1047300001D90623BB623B6BBA6ADA623B6BBA6A89
:104740005A643B6B00229A643B6B04331846FEF7B5
:10475000FDFE3B6B18331846FEF7F8FE3B6B3A6BD9
:104760001A61BB6AC3F107023B6B9A613B6B3A6B00
:104770005A623B6B0022DA643B6B002283F85020C4
:104780003A68F968B869FEF771FF02463B6B1A6038
:10479000FB6A002B02D0FB6A3A6B1A6000BF20371D
:1047A000BD4680BD80B582B000AF7860FFF74EF89F
:1047B0002A4B1B680133294A1360294B1B68002BC5
:1047C00009D1274A7B681360244B1B68012B10D149
:1047D00000F0CAFB0DE0234B1B68002B09D1204BD6
:1047E0001B68DA6A7B68DB6A9A4202D81C4A7B68DB
:1047F00013601D4B1B6801331B4A13607B68DB6A27
:1048000001229A40194B1B681343184A13607B68B6
:10481000DA6A13469B0013449B00154A1A447B68CE
:10482000043319461046FEF79DFEFFF73FF80D4B87
:104830001B68002B0ED00A4B1B68DA6A7B68DB6AA8
:104840009A4207D20B4B4FF080521A60BFF34F8F42
:10485000BFF36F8F00BF0837BD4680BD8C130020AB
:104860008C12002098130020A8130020941300201D
:104870009012002004ED00E080B584B000AF7860B5
:104880000023FB607B68002B17D0134B1B68002BA9
:104890000AD04FF0500383F31188BFF36F8FBFF33B
:1048A0004F8FBB6000BFFEE700F07AF80021786808
:1048B00000F0E2FD00F082F8F860FB68002B07D101
:1048C000064B4FF080521A60BFF34F8FBFF36F8FCC
:1048D00000BF1037BD4680BDB413002004ED00E0DA
:1048E00080B58AB004AF0023BB6000237B603A46EA
:1048F000391D07F108031846FDF788F939687B6808
:10490000BA68029201930023009300230A461E49CD
:104910001E48FFF727FE03461D4A13601C4B1B6809
:10492000002B02D001237B6101E000237B617B69C6
:10493000012B16D14FF0500383F31188BFF36F8F13
:10494000BFF34F8F3B6100BF124B4FF0FF321A6035
:10495000114B01221A60114B00221A60FEF704FF6E
:104960000EE07B69B3F1FF3F0AD14FF0500383F3B0
:104970001188BFF36F8FBFF34F8FFB6000BFFEE75F
:1049800000BF1837BD4680BD20830008394F00089E
:10499000B0130020AC1300209813002090130020C7
:1049A00080B400AF044B1B680133034A136000BF9F
:1049B000BD4680BC704700BFB413002080B584B0F2
:1049C00000AF0023FB600023BB60414B1B68002B42
:1049D0000AD14FF0500383F31188BFF36F8FBFF3F9
:1049E0004F8F3B6000BFFEE7FEF730FF384B1B6880
:1049F000013B374A1360364B1B68002B61D1354BA6
:104A00001B68002B5DD02EE0334BDB68DB68FB605E
:104A1000FB6818331846FEF700FEFB68043318469F
:104A2000FEF7FBFDFB68DB6A01229A402B4B1B68FB
:104A300013432A4A1360FB68DA6A13469B00134447
:104A40009B00274A1A44FB68043319461046FEF7B8
:104A500089FDFB68DA6A234B1B68DB6A9A4202D342
:104A6000214B01221A601C4B1B68002BCCD1FB6828
:104A7000002B01D000F016FB1C4B1B687B607B6891
:104A8000002B10D000F036F80346002B02D0164B56
:104A900001221A607B68013B7B607B68002BF1D1AF
:104AA000124B00221A60104B1B68002B09D0012307
:104AB000BB600F4B4FF080521A60BFF34F8FBFF3B4
:104AC0006F8FFEF7F3FEBB6818461037BD4680BDFA
:104AD000B41300208C1300204C13002094130020EA
:104AE000901200208C120020A01300209C130020A4
:104AF00004ED00E080B586B000AF00237B61514B30
:104B00001B68002B40F08D804F4B1B6801333B61CD
:104B10004D4A3B6913603B69002B20D14B4B1B680E
:104B20001B68002B0AD04FF0500383F31188BFF3AA
:104B30006F8FBFF34F8F3B6000BFFEE7434B1B6897
:104B4000FB60434B1B68414A1360414AFB6813609A
:104B5000404B1B6801333F4A136000F0A3FA3E4B01
:104B60001B683A699A424DD3384B1B681B68002B6F
:104B700001D1012300E00023002B04D0364B4FF07D
:104B8000FF321A603EE0314B1B68DB68DB68BB60BC
:104B9000BB685B687B603A697B689A4203D22E4AA5
:104BA0007B6813602EE0BB6804331846FEF735FDC2
:104BB000BB689B6A002B04D0BB6818331846FEF70D
:104BC0002CFDBB68DB6A01229A40244B1B6813430F
:104BD000224A1360BB68DA6A13469B0013449B00A9
:104BE0001F4A1A44BB68043319461046FEF7BAFC44
:104BF000BB68DA6A1B4B1B68DB6A9A42B4D3012399
:104C00007B61B1E7174B1B68DA6A154913469B00B5
:104C100013449B000B441B68012B07D901237B61C4
:104C200004E0114B1B6801330F4A13600F4B1B68E4
:104C3000002B01D001237B617B6918461837BD46E4
:104C400080BD00BFB4130020901300204413002047
:104C500048130020A4130020AC130020941300205C
:104C6000901200208C1200209C130020A013002022
:104C700080B487B000AF264B1B68002B03D0254BB8
:104C800001221A603FE0234B00221A60224B1B686E
:104C9000FB60FB68B3FA83F3FB72FB7AC3F11F037B
:104CA0007B611E497A6913469B0013449B000B44A9
:104CB0001B68002B0AD14FF0500383F31188BFF318
:104CC0006F8FBFF34F8F7B6000BFFEE77A6913469B
:104CD0009B0013449B00114A13443B613B695B6892
:104CE0005A683B695A603B695A683B6908339A4283
:104CF00004D13B695B685A683B695A603B695B68F1
:104D0000DB68074A136000BF1C37BD4680BC704794
:104D1000B4130020A0130020941300209012002050
:104D20008C12002080B584B000AF786039607B6859
:104D3000002B0AD14FF0500383F31188BFF36F8F1C
:104D4000BFF34F8FFB6000BFFEE7074B1B681833B4
:104D500019467868FEF729FC0121386800F08CFBC1
:104D600000BF1037BD4680BD8C12002080B586B0D4
:104D700000AF78607B68DB68DB683B613B69002BD8
:104D80000AD14FF0500383F31188BFF36F8FBFF345
:104D90004F8FFB6000BFFEE73B6918331846FEF7F4
:104DA0003CFC1D4B1B68002B1CD13B69043318468F
:104DB000FEF733FC3B69DB6A01229A40174B1B6804
:104DC0001343164A13603B69DA6A13469B00134487
:104DD0009B00134A1A443B69043319461046FEF7F8
:104DE000C1FB05E03B69183319460E48FEF7BAFBD4
:104DF0003B69DA6A0C4B1B68DB6A9A4205D90123CE
:104E00007B610A4B01221A6001E000237B617B6910
:104E100018461837BD4680BDB413002094130020F7
:104E2000901200204C1300208C120020A0130020B0
:104E300080B483B000AF7860064B1A687B681A6054
:104E4000054B1A687B685A6000BF0C37BD4680BCB2
:104E5000704700BFA41300209013002080B588B0D5
:104E600000AF786039607B68002B0AD14FF05003A7
:104E700083F31188BFF36F8FBFF34F8F3B6100BF88
:104E8000FEE73B68002B0AD14FF0500383F31188F3
:104E9000BFF36F8FBFF34F8FFB6000BFFEE7FEF7DE
:104EA000D5FC1D4B1B68BB617B685B68BA69D31A74
:104EB0007B613B681B68B3F1FF3F02D10023FB61BC
:104EC00023E07B681A68154B1B689A4207D07B6801
:104ED0005B68BA699A4202D30123FB6115E03B6823
:104EE0001B687A699A420BD23B681A687B69D21AAE
:104EF0003B681A607868FFF79BFF0023FB6104E0C2
:104F00003B6800221A600123FB61FEF7CFFCFB69BE
:104F100018462037BD4680BD90130020A413002002
:104F200080B400AF034B01221A6000BFBD4680BCB5
:104F3000704700BFA013002080B582B000AF78603A
:104F400000F052F8064B1B68012BF9D9054B4FF0C6
:104F500080521A60BFF34F8FBFF36F8FF0E700BF2F
:104F60009012002004ED00E080B582B000AF002375
:104F70007B600CE07A6813469B0013449B00124A46
:104F800013441846FEF7C3FA7B6801337B607B68E5
:104F9000062BEFD90D48FEF7BAFA0D48FEF7B7FA1F
:104FA0000C48FEF7B4FA0C48FEF7B1FA0B48FEF7CE
:104FB000AEFA0B4B054A1A600A4B054A1A6000BF4D
:104FC0000837BD4680BD00BF901200201C13002092
:104FD000301300204C1300206013002078130020B1
:104FE000441300204813002080B582B000AF19E0C0
:104FF000FEF72CFC104BDB68DB687B607B680433BE
:105000001846FEF70AFB0D4B1B68013B0B4A136069
:105010000B4B1B68013B0A4A1360FEF747FC78689C
:1050200000F010F8064B1B68002BE1D100BF00BF59
:105030000837BD4680BD00BF601300208C130020E0
:105040007413002080B584B000AF78607B6893F85B
:105050005130002B08D17B681B6B1846FEF7BAFD58
:105060007868FEF7B7FD18E07B6893F85130012BA4
:1050700003D17868FEF7AEFD0FE07B6893F85130FE
:10508000022B0AD04FF0500383F31188BFF36F8FC8
:10509000BFF34F8FFB6000BFFEE700BF1037BD4678
:1050A00080BD000080B483B000AF0E4B1B681B684E
:1050B000002B01D1012300E00023002B04D00A4B78
:1050C0004FF0FF321A6008E0064B1B68DB68DB68B4
:1050D0007B607B685B68044A136000BF0C37BD4689
:1050E00080BC704744130020AC13002080B483B010
:1050F00000AF0B4B1B68002B02D101237B6008E043
:10510000084B1B68002B02D102237B6001E00023C7
:105110007B607B6818460C37BD4680BC704700BF7B
:1051200098130020B413002080B586B000AF7860DB
:105130007B683B6100237B617B68002B6ED03A4B20
:105140001B683A699A420AD04FF0500383F31188E2
:10515000BFF36F8FBFF34F8FFB6000BFFEE73B696C
:105160009B6C002B0AD14FF0500383F31188BFF3DF
:105170006F8FBFF34F8FBB6000BFFEE73B699B6C37
:105180005A1E3B699A643B69DA6A3B695B6C9A42D6
:1051900044D03B699B6C002B40D13B6904331846DB
:1051A000FEF73BFA0346002B15D13B69DA6A1F492B
:1051B00013469B0013449B000B441B68002B0AD131
:1051C0003B69DB6A012202FA03F3DA43184B1B68DE
:1051D0001340174A13603B695A6C3B69DA623B69BA
:1051E000DB6AC3F107023B699A613B69DB6A012212
:1051F0009A400F4B1B6813430D4A13603B69DA6AF0
:1052000013469B0013449B00084A1A443B6904332D
:1052100019461046FEF7A6F901237B617B69184603
:105220001837BD4680BD00BF8C12002090120020B0
:105230009413002080B586B000AFF860B9607A6042
:105240003B60FEF703FB264B1B6893F85030DBB244
:10525000022B1AD0224B1B68D96CFA68D2430A4041
:10526000DA641F4B1B68012283F850203B68002B37
:105270000BD00121386800F0FFF81A4B4FF0805234
:105280001A60BFF34F8FBFF36F8FFEF70FFBFEF770
:10529000DDFA7B68002B04D0114B1B68DA6C7B684D
:1052A0001A600F4B1B6893F85030DBB2022B02D010
:1052B00000237B6108E00A4B1B68D96CBA68D243B3
:1052C0000A40DA6401237B61054B1B68002283F8E6
:1052D0005020FEF7EBFA7B6918461837BD4680BDB3
:1052E0008C12002004ED00E080B58EB000AFF860B5
:1052F000B9603B601346FB7101237B63FB68002BA5
:105300000AD14FF0500383F31188BFF36F8FBFF3BF
:105310004F8F7B6200BFFEE7FEF75AFBFB683B63E3
:10532000EFF311824FF0500383F31188BFF36F8FB7
:10533000BFF34F8F3A62FB613B6AFB623B68002B15
:1053400003D03B6BDA6C3B681A603B6B93F85030D0
:1053500087F82B303B6B022283F85020FB79042B1B
:1053600028D801A252F823F0B55300087D53000855
:105370008B530008975300089F5300083B6BDA6C6F
:10538000BB681A433B6BDA6414E03B6BDB6C5A1C62
:105390003B6BDA640EE03B6BBA68DA640AE097F8BC
:1053A0002B30022B03D03B6BBA68DA6401E0002398
:1053B0007B6300BF97F82B30012B46D13B6B9B6A78
:1053C000002B0AD04FF0500383F31188BFF36F8F87
:1053D000BFF34F8FBB6100BFFEE7214B1B68002B63
:1053E0001CD13B6B04331846FEF717F93B6BDB6AA5
:1053F00001229A401B4B1B6813431A4A13603B6BF4
:10540000DA6A13469B0013449B00174A1A443B6B0D
:10541000043319461046FEF7A5F805E03B6B183338
:1054200019461248FEF79EF83B6BDA6A104B1B6870
:10543000DB6A9A4209D93B6C002B03D03B6C0122FA
:105440001A6002E00B4B01221A60FB6A7B617B69E8
:1054500083F3118800BF7B6B18463837BD4680BD8B
:10546000B413002094130020901200204C1300204D
:105470008C120020A013002080B584B000AF7860AB
:105480003960294B1B68FB60284B1B6804331846A6
:10549000FEF7C3F80346002B0BD1244B1B68DB6AD5
:1054A000012202FA03F3DA43214B1B681340204A1E
:1054B00013607B68B3F1FF3F0AD13B68002B07D034
:1054C0001A4B1B68043319461A48FEF74BF826E0BE
:1054D000FA687B681344BB60144B1B68BA685A6057
:1054E000BA68FB689A4209D2134B1A680F4B1B68C3
:1054F000043319461046FEF758F810E00F4B1A68AF
:105500000A4B1B68043319461046FEF74EF80C4B45
:105510001B68BA689A4202D2094ABB68136000BF8E
:105520001037BD4680BD00BF901300208C120020B4
:105530009413002078130020481300204413002007
:10554000AC13002080B584B000AF78607B68002B7E
:1055500001D10123EDE07B6893F82030DBB2002B12
:1055600002D17868FDF72AFD7B681B681A687B68A2
:105570001B6842F001021A6002F04AFEF86012E075
:1055800002F046FE0246FB68D31A0A2B0BD97B6851
:105590005B6A43F400327B685A627B68052283F8B9
:1055A00020200123C5E07B681B685B6803F00103D2
:1055B000002BE5D07B681B681A687B681B6822F0AB
:1055C00002021A6002F024FEF86012E002F020FEEF
:1055D0000246FB68D31A0A2B0BD97B685B6A43F43B
:1055E00000327B685A627B68052283F82020012301
:1055F0009FE07B681B685B6803F00203002BE5D12A
:105600007B681B7E012B08D17B681B681A687B684E
:105610001B6842F080021A6007E07B681B681A680A
:105620007B681B6822F080021A607B685B7E012B1E
:1056300008D17B681B681A687B681B6842F04002CF
:105640001A6007E07B681B681A687B681B6822F099
:1056500040021A607B689B7E012B08D17B681B6827
:105660001A687B681B6842F020021A6007E07B68BA
:105670001B681A687B681B6822F020021A607B682E
:10568000DB7E012B08D17B681B681A687B681B686E
:1056900022F010021A6007E07B681B681A687B68BA
:1056A0001B6842F010021A607B681B7F012B08D137
:1056B0007B681B681A687B681B6842F008021A60E6
:1056C00007E07B681B681A687B681B6822F0080289
:1056D0001A607B685B7F012B08D17B681B681A68A6
:1056E0007B681B6842F004021A6007E07B681B6855
:1056F0001A687B681B6822F004021A607B689A684B
:105700007B68DB681A437B681B691A437B685B69AB
:1057100042EA03017B685B685A1E7B681B680A4388
:10572000DA617B6800225A627B68012283F82020BC
:10573000002318461037BD4680BD80B487B000AF47
:10574000786039607B681B687B617B6893F82030E8
:10575000FB74FB7C012B03D0FB7C022B40F0AA8066
:105760007B69D3F8003243F001027B69C3F8002261
:105770003B685B6903F01F03012202FA03F3FB603D
:105780007B69D3F81C22FB68DB431A407B69C3F8B2
:105790001C223B68DB69002B23D17B69D3F80C22E8
:1057A000FB68DB431A407B69C3F80C223B68DB686B
:1057B00019043B685B689BB23A68526919437B697C
:1057C000483243F832103B689B6819043B681B68F9
:1057D0009AB23B685B690A4379694833DB000B4442
:1057E0005A603B68DB69012B22D17B69D3F80C221C
:1057F000FB681A437B69C3F80C223B681B681904D9
:105800003B685B689BB23A68526919437B694832CE
:1058100043F832103B689B6819043B68DB689AB216
:105820003B685B690A4379694833DB000B445A6083
:105830003B689B69002B09D17B69D3F80422FB6884
:10584000DB431A407B69C3F8042207E07B69D3F885
:105850000422FB681A437B69C3F804223B681B6976
:10586000002B09D17B69D3F81422FB68DB431A4073
:105870007B69C3F8142207E07B69D3F81422FB6824
:105880001A437B69C3F814223B681B6A012B07D1BA
:105890007B69D3F81C22FB681A437B69C3F81C227E
:1058A0007B69D3F8003223F001027B69C3F8002240
:1058B000002306E07B685B6A43F480227B685A62BF
:1058C000012318461C37BD4680BC704780B584B0A4
:1058D00000AF78607B6893F82030DBB2012B2ED1CB
:1058E0007B68022283F820207B681B681A687B682B
:1058F0001B6822F001021A6002F08AFCF86012E0D4
:1059000002F086FC0246FB68D31A0A2B0BD97B688F
:105910005B6A43F400327B685A627B68052283F835
:105920002020012312E07B681B685B6803F0010301
:10593000002BE5D17B6800225A62002306E07B68D9
:105940005B6A43F400227B685A62012318461037D1
:10595000BD4680BD80B489B000AFF860B9607A60A0
:105960003B60FB6893F82030FB77FB681B689B6803
:10597000BB61FB7F012B03D0FB7F022B40F0AD808E
:10598000BB6903F08063002B0AD1BB6903F000639D
:10599000002B05D1BB6903F08053002B00F09580EC
:1059A000BB691B0E03F003037B6101227B699A40F4
:1059B0003B681A60BB689B68002B0DD1BB681B68F5
:1059C0005A05BB68DB68F96809681A437B691833B4
:1059D0001B010B441A600FE0BB685B68DA00BB6810
:1059E0009B681A43BB68DB68F96809681A437B69DE
:1059F00018331B010B441A60FB681968BB681A69ED
:105A00007B6918331B010B4404331A60BB681B7D90
:105A1000012B11D1FB681A687B6918331B011344F1
:105A200004331B68FA68116843F480727B69183389
:105A30001B010B4404331A607B6807331B781A067A
:105A40007B6806331B781B041A437B6805331B787D
:105A50001B0213437A68043212781046FA68116800
:105A600043EA00027B691B010B4403F5C6731A600D
:105A70007B6803331B781A067B6802331B781B0490
:105A80001A437B6801331B781B0213437A68127830
:105A90001046FA68116843EA00027B691B010B4457
:105AA00003F5C4731A60FB681A687B6918331B011D
:105AB00013441B68FA68116843F001027B691833CC
:105AC0001B010B441A6000230EE0FB685B6A43F481
:105AD0000012FB685A62012306E0FB685B6A43F42C
